{
  "_format": "hh-sol-artifact-1",
  "contractName": "MyNFT",
  "sourceName": "contracts/MyNFT.sol",
  "abi": [
    {
      "inputs": [
        {
          "internalType": "string",
          "name": "name",
          "type": "string"
        },
        {
          "internalType": "string",
          "name": "symbol",
          "type": "string"
        }
      ],
      "stateMutability": "nonpayable",
      "type": "constructor"
    },
    {
      "anonymous": false,
      "inputs": [
        {
          "indexed": true,
          "internalType": "address",
          "name": "owner",
          "type": "address"
        },
        {
          "indexed": true,
          "internalType": "address",
          "name": "approved",
          "type": "address"
        },
        {
          "indexed": true,
          "internalType": "uint256",
          "name": "tokenId",
          "type": "uint256"
        }
      ],
      "name": "Approval",
      "type": "event"
    },
    {
      "anonymous": false,
      "inputs": [
        {
          "indexed": true,
          "internalType": "address",
          "name": "owner",
          "type": "address"
        },
        {
          "indexed": true,
          "internalType": "address",
          "name": "operator",
          "type": "address"
        },
        {
          "indexed": false,
          "internalType": "bool",
          "name": "approved",
          "type": "bool"
        }
      ],
      "name": "ApprovalForAll",
      "type": "event"
    },
    {
      "anonymous": false,
      "inputs": [
        {
          "indexed": true,
          "internalType": "address",
          "name": "previousOwner",
          "type": "address"
        },
        {
          "indexed": true,
          "internalType": "address",
          "name": "newOwner",
          "type": "address"
        }
      ],
      "name": "OwnershipTransferred",
      "type": "event"
    },
    {
      "anonymous": false,
      "inputs": [
        {
          "indexed": true,
          "internalType": "address",
          "name": "from",
          "type": "address"
        },
        {
          "indexed": true,
          "internalType": "address",
          "name": "to",
          "type": "address"
        },
        {
          "indexed": true,
          "internalType": "uint256",
          "name": "tokenId",
          "type": "uint256"
        }
      ],
      "name": "Transfer",
      "type": "event"
    },
    {
      "inputs": [
        {
          "internalType": "address",
          "name": "to",
          "type": "address"
        },
        {
          "internalType": "uint256",
          "name": "tokenId",
          "type": "uint256"
        }
      ],
      "name": "approve",
      "outputs": [],
      "stateMutability": "nonpayable",
      "type": "function"
    },
    {
      "inputs": [
        {
          "internalType": "address",
          "name": "owner",
          "type": "address"
        }
      ],
      "name": "balanceOf",
      "outputs": [
        {
          "internalType": "uint256",
          "name": "",
          "type": "uint256"
        }
      ],
      "stateMutability": "view",
      "type": "function"
    },
    {
      "inputs": [
        {
          "internalType": "uint256",
          "name": "tokenId",
          "type": "uint256"
        },
        {
          "internalType": "string",
          "name": "newTokenURI",
          "type": "string"
        }
      ],
      "name": "changeTokenURI",
      "outputs": [],
      "stateMutability": "nonpayable",
      "type": "function"
    },
    {
      "inputs": [
        {
          "internalType": "uint256",
          "name": "tokenId",
          "type": "uint256"
        }
      ],
      "name": "getApproved",
      "outputs": [
        {
          "internalType": "address",
          "name": "",
          "type": "address"
        }
      ],
      "stateMutability": "view",
      "type": "function"
    },
    {
      "inputs": [
        {
          "internalType": "address",
          "name": "owner",
          "type": "address"
        },
        {
          "internalType": "address",
          "name": "operator",
          "type": "address"
        }
      ],
      "name": "isApprovedForAll",
      "outputs": [
        {
          "internalType": "bool",
          "name": "",
          "type": "bool"
        }
      ],
      "stateMutability": "view",
      "type": "function"
    },
    {
      "inputs": [],
      "name": "maxNFTCount",
      "outputs": [
        {
          "internalType": "uint256",
          "name": "",
          "type": "uint256"
        }
      ],
      "stateMutability": "view",
      "type": "function"
    },
    {
      "inputs": [
        {
          "internalType": "address",
          "name": "to",
          "type": "address"
        },
        {
          "internalType": "string",
          "name": "tokenURI",
          "type": "string"
        }
      ],
      "name": "mintNFT",
      "outputs": [],
      "stateMutability": "nonpayable",
      "type": "function"
    },
    {
      "inputs": [],
      "name": "name",
      "outputs": [
        {
          "internalType": "string",
          "name": "",
          "type": "string"
        }
      ],
      "stateMutability": "view",
      "type": "function"
    },
    {
      "inputs": [],
      "name": "owner",
      "outputs": [
        {
          "internalType": "address",
          "name": "",
          "type": "address"
        }
      ],
      "stateMutability": "view",
      "type": "function"
    },
    {
      "inputs": [
        {
          "internalType": "uint256",
          "name": "tokenId",
          "type": "uint256"
        }
      ],
      "name": "ownerOf",
      "outputs": [
        {
          "internalType": "address",
          "name": "",
          "type": "address"
        }
      ],
      "stateMutability": "view",
      "type": "function"
    },
    {
      "inputs": [],
      "name": "renounceOwnership",
      "outputs": [],
      "stateMutability": "nonpayable",
      "type": "function"
    },
    {
      "inputs": [
        {
          "internalType": "address",
          "name": "from",
          "type": "address"
        },
        {
          "internalType": "address",
          "name": "to",
          "type": "address"
        },
        {
          "internalType": "uint256",
          "name": "tokenId",
          "type": "uint256"
        }
      ],
      "name": "safeTransferFrom",
      "outputs": [],
      "stateMutability": "nonpayable",
      "type": "function"
    },
    {
      "inputs": [
        {
          "internalType": "address",
          "name": "from",
          "type": "address"
        },
        {
          "internalType": "address",
          "name": "to",
          "type": "address"
        },
        {
          "internalType": "uint256",
          "name": "tokenId",
          "type": "uint256"
        },
        {
          "internalType": "bytes",
          "name": "data",
          "type": "bytes"
        }
      ],
      "name": "safeTransferFrom",
      "outputs": [],
      "stateMutability": "nonpayable",
      "type": "function"
    },
    {
      "inputs": [
        {
          "internalType": "address",
          "name": "operator",
          "type": "address"
        },
        {
          "internalType": "bool",
          "name": "approved",
          "type": "bool"
        }
      ],
      "name": "setApprovalForAll",
      "outputs": [],
      "stateMutability": "nonpayable",
      "type": "function"
    },
    {
      "inputs": [
        {
          "internalType": "bytes4",
          "name": "interfaceId",
          "type": "bytes4"
        }
      ],
      "name": "supportsInterface",
      "outputs": [
        {
          "internalType": "bool",
          "name": "",
          "type": "bool"
        }
      ],
      "stateMutability": "view",
      "type": "function"
    },
    {
      "inputs": [],
      "name": "symbol",
      "outputs": [
        {
          "internalType": "string",
          "name": "",
          "type": "string"
        }
      ],
      "stateMutability": "view",
      "type": "function"
    },
    {
      "inputs": [
        {
          "internalType": "uint256",
          "name": "index",
          "type": "uint256"
        }
      ],
      "name": "tokenByIndex",
      "outputs": [
        {
          "internalType": "uint256",
          "name": "",
          "type": "uint256"
        }
      ],
      "stateMutability": "view",
      "type": "function"
    },
    {
      "inputs": [
        {
          "internalType": "address",
          "name": "owner",
          "type": "address"
        },
        {
          "internalType": "uint256",
          "name": "index",
          "type": "uint256"
        }
      ],
      "name": "tokenOfOwnerByIndex",
      "outputs": [
        {
          "internalType": "uint256",
          "name": "",
          "type": "uint256"
        }
      ],
      "stateMutability": "view",
      "type": "function"
    },
    {
      "inputs": [
        {
          "internalType": "uint256",
          "name": "tokenId",
          "type": "uint256"
        }
      ],
      "name": "tokenURI",
      "outputs": [
        {
          "internalType": "string",
          "name": "",
          "type": "string"
        }
      ],
      "stateMutability": "view",
      "type": "function"
    },
    {
      "inputs": [],
      "name": "totalSupply",
      "outputs": [
        {
          "internalType": "uint256",
          "name": "",
          "type": "uint256"
        }
      ],
      "stateMutability": "view",
      "type": "function"
    },
    {
      "inputs": [
        {
          "internalType": "address",
          "name": "from",
          "type": "address"
        },
        {
          "internalType": "address",
          "name": "to",
          "type": "address"
        },
        {
          "internalType": "uint256",
          "name": "tokenId",
          "type": "uint256"
        }
      ],
      "name": "transferFrom",
      "outputs": [],
      "stateMutability": "nonpayable",
      "type": "function"
    },
    {
      "inputs": [
        {
          "internalType": "address",
          "name": "newOwner",
          "type": "address"
        }
      ],
      "name": "transferOwnership",
      "outputs": [],
      "stateMutability": "nonpayable",
      "type": "function"
    }
  ],
  "bytecode": "0x6080604052610bb8600c553480156200001757600080fd5b5060405162003d5638038062003d5683398181016040528101906200003d9190620002ee565b81818160009081620000509190620005be565b508060019081620000629190620005be565b50505062000085620000796200008d60201b60201c565b6200009560201b60201c565b5050620006a5565b600033905090565b6000600a60009054906101000a900473ffffffffffffffffffffffffffffffffffffffff16905081600a60006101000a81548173ffffffffffffffffffffffffffffffffffffffff021916908373ffffffffffffffffffffffffffffffffffffffff1602179055508173ffffffffffffffffffffffffffffffffffffffff168173ffffffffffffffffffffffffffffffffffffffff167f8be0079c531659141344cd1fd0a4f28419497f9722a3daafe3b4186f6b6457e060405160405180910390a35050565b6000604051905090565b600080fd5b600080fd5b600080fd5b600080fd5b6000601f19601f8301169050919050565b7f4e487b7100000000000000000000000000000000000000000000000000000000600052604160045260246000fd5b620001c48262000179565b810181811067ffffffffffffffff82111715620001e657620001e56200018a565b5b80604052505050565b6000620001fb6200015b565b9050620002098282620001b9565b919050565b600067ffffffffffffffff8211156200022c576200022b6200018a565b5b620002378262000179565b9050602081019050919050565b60005b838110156200026457808201518184015260208101905062000247565b60008484015250505050565b60006200028762000281846200020e565b620001ef565b905082815260208101848484011115620002a657620002a562000174565b5b620002b384828562000244565b509392505050565b600082601f830112620002d357620002d26200016f565b5b8151620002e584826020860162000270565b91505092915050565b6000806040838503121562000308576200030762000165565b5b600083015167ffffffffffffffff8111156200032957620003286200016a565b5b6200033785828601620002bb565b925050602083015167ffffffffffffffff8111156200035b576200035a6200016a565b5b6200036985828601620002bb565b9150509250929050565b600081519050919050565b7f4e487b7100000000000000000000000000000000000000000000000000000000600052602260045260246000fd5b60006002820490506001821680620003c657607f821691505b602082108103620003dc57620003db6200037e565b5b50919050565b60008190508160005260206000209050919050565b60006020601f8301049050919050565b600082821b905092915050565b600060088302620004467fffffffffffffffffffffffffffffffffffffffffffffffffffffffffffffffff8262000407565b62000452868362000407565b95508019841693508086168417925050509392505050565b6000819050919050565b6000819050919050565b60006200049f6200049962000493846200046a565b62000474565b6200046a565b9050919050565b6000819050919050565b620004bb836200047e565b620004d3620004ca82620004a6565b84845462000414565b825550505050565b600090565b620004ea620004db565b620004f7818484620004b0565b505050565b5b818110156200051f5762000513600082620004e0565b600181019050620004fd565b5050565b601f8211156200056e576200053881620003e2565b6200054384620003f7565b8101602085101562000553578190505b6200056b6200056285620003f7565b830182620004fc565b50505b505050565b600082821c905092915050565b6000620005936000198460080262000573565b1980831691505092915050565b6000620005ae838362000580565b9150826002028217905092915050565b620005c98262000373565b67ffffffffffffffff811115620005e557620005e46200018a565b5b620005f18254620003ad565b620005fe82828562000523565b600060209050601f83116001811462000636576000841562000621578287015190505b6200062d8582620005a0565b8655506200069d565b601f1984166200064686620003e2565b60005b82811015620006705784890151825560018201915060208501945060208101905062000649565b868310156200069057848901516200068c601f89168262000580565b8355505b6001600288020188555050505b505050505050565b6136a180620006b56000396000f3fe608060405234801561001057600080fd5b50600436106101425760003560e01c8063715018a6116100b8578063b88d4fde1161007c578063b88d4fde14610375578063c87b56dd14610391578063e985e9c5146103c1578063eacabe14146103f1578063f2fde38b1461040d578063f64989fe1461042957610142565b8063715018a6146102f75780637fb3a9a2146103015780638da5cb5b1461031d57806395d89b411461033b578063a22cb4651461035957610142565b806323b872dd1161010a57806323b872dd146101ff5780632f745c591461021b57806342842e0e1461024b5780634f6ccce7146102675780636352211e1461029757806370a08231146102c757610142565b806301ffc9a71461014757806306fdde0314610177578063081812fc14610195578063095ea7b3146101c557806318160ddd146101e1575b600080fd5b610161600480360381019061015c9190612030565b610447565b60405161016e9190612078565b60405180910390f35b61017f6104c1565b60405161018c9190612123565b60405180910390f35b6101af60048036038101906101aa919061217b565b610553565b6040516101bc91906121e9565b60405180910390f35b6101df60048036038101906101da9190612230565b610599565b005b6101e96106b0565b6040516101f6919061227f565b60405180910390f35b6102196004803603810190610214919061229a565b6106bd565b005b61023560048036038101906102309190612230565b61071d565b604051610242919061227f565b60405180910390f35b6102656004803603810190610260919061229a565b6107c2565b005b610281600480360381019061027c919061217b565b6107e2565b60405161028e919061227f565b60405180910390f35b6102b160048036038101906102ac919061217b565b610853565b6040516102be91906121e9565b60405180910390f35b6102e160048036038101906102dc91906122ed565b6108d9565b6040516102ee919061227f565b60405180910390f35b6102ff610990565b005b61031b6004803603810190610316919061244f565b6109a4565b005b610325610a1d565b60405161033291906121e9565b60405180910390f35b610343610a47565b6040516103509190612123565b60405180910390f35b610373600480360381019061036e91906124d7565b610ad9565b005b61038f600480360381019061038a91906125b8565b610aef565b005b6103ab60048036038101906103a6919061217b565b610b51565b6040516103b89190612123565b60405180910390f35b6103db60048036038101906103d6919061263b565b610c0d565b6040516103e89190612078565b60405180910390f35b61040b6004803603810190610406919061267b565b610ca1565b005b610427600480360381019061042291906122ed565b610d50565b005b610431610dd3565b60405161043e919061227f565b60405180910390f35b60007f780e9d63000000000000000000000000000000000000000000000000000000007bffffffffffffffffffffffffffffffffffffffffffffffffffffffff1916827bffffffffffffffffffffffffffffffffffffffffffffffffffffffff191614806104ba57506104b982610dd9565b5b9050919050565b6060600080546104d090612706565b80601f01602080910402602001604051908101604052809291908181526020018280546104fc90612706565b80156105495780601f1061051e57610100808354040283529160200191610549565b820191906000526020600020905b81548152906001019060200180831161052c57829003601f168201915b5050505050905090565b600061055e82610ebb565b6004600083815260200190815260200160002060009054906101000a900473ffffffffffffffffffffffffffffffffffffffff169050919050565b60006105a482610853565b90508073ffffffffffffffffffffffffffffffffffffffff168373ffffffffffffffffffffffffffffffffffffffff1603610614576040517f08c379a000000000000000000000000000000000000000000000000000000000815260040161060b906127a9565b60405180910390fd5b8073ffffffffffffffffffffffffffffffffffffffff16610633610f06565b73ffffffffffffffffffffffffffffffffffffffff16148061066257506106618161065c610f06565b610c0d565b5b6106a1576040517f08c379a00000000000000000000000000000000000000000000000000000000081526004016106989061283b565b60405180910390fd5b6106ab8383610f0e565b505050565b6000600880549050905090565b6106ce6106c8610f06565b82610fc7565b61070d576040517f08c379a0000000000000000000000000000000000000000000000000000000008152600401610704906128cd565b60405180910390fd5b61071883838361105c565b505050565b6000610728836108d9565b8210610769576040517f08c379a00000000000000000000000000000000000000000000000000000000081526004016107609061295f565b60405180910390fd5b600660008473ffffffffffffffffffffffffffffffffffffffff1673ffffffffffffffffffffffffffffffffffffffff168152602001908152602001600020600083815260200190815260200160002054905092915050565b6107dd83838360405180602001604052806000815250610aef565b505050565b60006107ec6106b0565b821061082d576040517f08c379a0000000000000000000000000000000000000000000000000000000008152600401610824906129f1565b60405180910390fd5b6008828154811061084157610840612a11565b5b90600052602060002001549050919050565b60008061085f83611355565b9050600073ffffffffffffffffffffffffffffffffffffffff168173ffffffffffffffffffffffffffffffffffffffff16036108d0576040517f08c379a00000000000000000000000000000000000000000000000000000000081526004016108c790612a8c565b60405180910390fd5b80915050919050565b60008073ffffffffffffffffffffffffffffffffffffffff168273ffffffffffffffffffffffffffffffffffffffff1603610949576040517f08c379a000000000000000000000000000000000000000000000000000000000815260040161094090612b1e565b60405180910390fd5b600360008373ffffffffffffffffffffffffffffffffffffffff1673ffffffffffffffffffffffffffffffffffffffff168152602001908152602001600020549050919050565b610998611392565b6109a26000611410565b565b6109ae3383610fc7565b6109ed576040517f08c379a00000000000000000000000000000000000000000000000000000000081526004016109e490612bb0565b60405180910390fd5b80600d8381548110610a0257610a01612a11565b5b906000526020600020019081610a189190612d7c565b505050565b6000600a60009054906101000a900473ffffffffffffffffffffffffffffffffffffffff16905090565b606060018054610a5690612706565b80601f0160208091040260200160405190810160405280929190818152602001828054610a8290612706565b8015610acf5780601f10610aa457610100808354040283529160200191610acf565b820191906000526020600020905b815481529060010190602001808311610ab257829003601f168201915b5050505050905090565b610aeb610ae4610f06565b83836114d6565b5050565b610b00610afa610f06565b83610fc7565b610b3f576040517f08c379a0000000000000000000000000000000000000000000000000000000008152600401610b36906128cd565b60405180910390fd5b610b4b84848484611642565b50505050565b6060610b5c8261169e565b610b9b576040517f08c379a0000000000000000000000000000000000000000000000000000000008152600401610b9290612ec0565b60405180910390fd5b6000610ba56116df565b90506000815111610bc55760405180602001604052806000815250610c05565b80600d8481548110610bda57610bd9612a11565b5b90600052602060002001604051602001610bf5929190612f9f565b6040516020818303038152906040525b915050919050565b6000600560008473ffffffffffffffffffffffffffffffffffffffff1673ffffffffffffffffffffffffffffffffffffffff16815260200190815260200160002060008373ffffffffffffffffffffffffffffffffffffffff1673ffffffffffffffffffffffffffffffffffffffff16815260200190815260200160002060009054906101000a900460ff16905092915050565b610ca9611392565b600c54610cb46106b0565b10610cf4576040517f08c379a0000000000000000000000000000000000000000000000000000000008152600401610ceb9061300f565b60405180910390fd5b6000610d00600b6116ff565b9050610d0c838261170d565b610d16600b61192a565b600d82908060018154018082558091505060019003906000526020600020016000909190919091509081610d4a9190612d7c565b50505050565b610d58611392565b600073ffffffffffffffffffffffffffffffffffffffff168173ffffffffffffffffffffffffffffffffffffffff1603610dc7576040517f08c379a0000000000000000000000000000000000000000000000000000000008152600401610dbe906130a1565b60405180910390fd5b610dd081611410565b50565b600c5481565b60007f80ac58cd000000000000000000000000000000000000000000000000000000007bffffffffffffffffffffffffffffffffffffffffffffffffffffffff1916827bffffffffffffffffffffffffffffffffffffffffffffffffffffffff19161480610ea457507f5b5e139f000000000000000000000000000000000000000000000000000000007bffffffffffffffffffffffffffffffffffffffffffffffffffffffff1916827bffffffffffffffffffffffffffffffffffffffffffffffffffffffff1916145b80610eb45750610eb382611940565b5b9050919050565b610ec48161169e565b610f03576040517f08c379a0000000000000000000000000000000000000000000000000000000008152600401610efa90612a8c565b60405180910390fd5b50565b600033905090565b816004600083815260200190815260200160002060006101000a81548173ffffffffffffffffffffffffffffffffffffffff021916908373ffffffffffffffffffffffffffffffffffffffff160217905550808273ffffffffffffffffffffffffffffffffffffffff16610f8183610853565b73ffffffffffffffffffffffffffffffffffffffff167f8c5be1e5ebec7d5bd14f71427d1e84f3dd0314c0f7b2291e5b200ac8c7c3b92560405160405180910390a45050565b600080610fd383610853565b90508073ffffffffffffffffffffffffffffffffffffffff168473ffffffffffffffffffffffffffffffffffffffff16148061101557506110148185610c0d565b5b8061105357508373ffffffffffffffffffffffffffffffffffffffff1661103b84610553565b73ffffffffffffffffffffffffffffffffffffffff16145b91505092915050565b8273ffffffffffffffffffffffffffffffffffffffff1661107c82610853565b73ffffffffffffffffffffffffffffffffffffffff16146110d2576040517f08c379a00000000000000000000000000000000000000000000000000000000081526004016110c990613133565b60405180910390fd5b600073ffffffffffffffffffffffffffffffffffffffff168273ffffffffffffffffffffffffffffffffffffffff1603611141576040517f08c379a0000000000000000000000000000000000000000000000000000000008152600401611138906131c5565b60405180910390fd5b61114e83838360016119aa565b8273ffffffffffffffffffffffffffffffffffffffff1661116e82610853565b73ffffffffffffffffffffffffffffffffffffffff16146111c4576040517f08c379a00000000000000000000000000000000000000000000000000000000081526004016111bb90613133565b60405180910390fd5b6004600082815260200190815260200160002060006101000a81549073ffffffffffffffffffffffffffffffffffffffff02191690556001600360008573ffffffffffffffffffffffffffffffffffffffff1673ffffffffffffffffffffffffffffffffffffffff168152602001908152602001600020600082825403925050819055506001600360008473ffffffffffffffffffffffffffffffffffffffff1673ffffffffffffffffffffffffffffffffffffffff16815260200190815260200160002060008282540192505081905550816002600083815260200190815260200160002060006101000a81548173ffffffffffffffffffffffffffffffffffffffff021916908373ffffffffffffffffffffffffffffffffffffffff160217905550808273ffffffffffffffffffffffffffffffffffffffff168473ffffffffffffffffffffffffffffffffffffffff167fddf252ad1be2c89b69c2b068fc378daa952ba7f163c4a11628f55a4df523b3ef60405160405180910390a46113508383836001611b08565b505050565b60006002600083815260200190815260200160002060009054906101000a900473ffffffffffffffffffffffffffffffffffffffff169050919050565b61139a610f06565b73ffffffffffffffffffffffffffffffffffffffff166113b8610a1d565b73ffffffffffffffffffffffffffffffffffffffff161461140e576040517f08c379a000000000000000000000000000000000000000000000000000000000815260040161140590613231565b60405180910390fd5b565b6000600a60009054906101000a900473ffffffffffffffffffffffffffffffffffffffff16905081600a60006101000a81548173ffffffffffffffffffffffffffffffffffffffff021916908373ffffffffffffffffffffffffffffffffffffffff1602179055508173ffffffffffffffffffffffffffffffffffffffff168173ffffffffffffffffffffffffffffffffffffffff167f8be0079c531659141344cd1fd0a4f28419497f9722a3daafe3b4186f6b6457e060405160405180910390a35050565b8173ffffffffffffffffffffffffffffffffffffffff168373ffffffffffffffffffffffffffffffffffffffff1603611544576040517f08c379a000000000000000000000000000000000000000000000000000000000815260040161153b9061329d565b60405180910390fd5b80600560008573ffffffffffffffffffffffffffffffffffffffff1673ffffffffffffffffffffffffffffffffffffffff16815260200190815260200160002060008473ffffffffffffffffffffffffffffffffffffffff1673ffffffffffffffffffffffffffffffffffffffff16815260200190815260200160002060006101000a81548160ff0219169083151502179055508173ffffffffffffffffffffffffffffffffffffffff168373ffffffffffffffffffffffffffffffffffffffff167f17307eab39ab6107e8899845ad3d59bd9653f200f220920489ca2b5937696c31836040516116359190612078565b60405180910390a3505050565b61164d84848461105c565b61165984848484611b0e565b611698576040517f08c379a000000000000000000000000000000000000000000000000000000000815260040161168f9061332f565b60405180910390fd5b50505050565b60008073ffffffffffffffffffffffffffffffffffffffff166116c083611355565b73ffffffffffffffffffffffffffffffffffffffff1614159050919050565b60606040518060600160405280603d815260200161362f603d9139905090565b600081600001549050919050565b600073ffffffffffffffffffffffffffffffffffffffff168273ffffffffffffffffffffffffffffffffffffffff160361177c576040517f08c379a00000000000000000000000000000000000000000000000000000000081526004016117739061339b565b60405180910390fd5b6117858161169e565b156117c5576040517f08c379a00000000000000000000000000000000000000000000000000000000081526004016117bc90613407565b60405180910390fd5b6117d36000838360016119aa565b6117dc8161169e565b1561181c576040517f08c379a000000000000000000000000000000000000000000000000000000000815260040161181390613407565b60405180910390fd5b6001600360008473ffffffffffffffffffffffffffffffffffffffff1673ffffffffffffffffffffffffffffffffffffffff16815260200190815260200160002060008282540192505081905550816002600083815260200190815260200160002060006101000a81548173ffffffffffffffffffffffffffffffffffffffff021916908373ffffffffffffffffffffffffffffffffffffffff160217905550808273ffffffffffffffffffffffffffffffffffffffff16600073ffffffffffffffffffffffffffffffffffffffff167fddf252ad1be2c89b69c2b068fc378daa952ba7f163c4a11628f55a4df523b3ef60405160405180910390a4611926600083836001611b08565b5050565b6001816000016000828254019250508190555050565b60007f01ffc9a7000000000000000000000000000000000000000000000000000000007bffffffffffffffffffffffffffffffffffffffffffffffffffffffff1916827bffffffffffffffffffffffffffffffffffffffffffffffffffffffff1916149050919050565b6119b684848484611c95565b60018111156119fa576040517f08c379a00000000000000000000000000000000000000000000000000000000081526004016119f190613499565b60405180910390fd5b6000829050600073ffffffffffffffffffffffffffffffffffffffff168573ffffffffffffffffffffffffffffffffffffffff1603611a4157611a3c81611c9b565b611a80565b8373ffffffffffffffffffffffffffffffffffffffff168573ffffffffffffffffffffffffffffffffffffffff1614611a7f57611a7e8582611ce4565b5b5b600073ffffffffffffffffffffffffffffffffffffffff168473ffffffffffffffffffffffffffffffffffffffff1603611ac257611abd81611e51565b611b01565b8473ffffffffffffffffffffffffffffffffffffffff168473ffffffffffffffffffffffffffffffffffffffff1614611b0057611aff8482611f22565b5b5b5050505050565b50505050565b6000611b2f8473ffffffffffffffffffffffffffffffffffffffff16611fa1565b15611c88578373ffffffffffffffffffffffffffffffffffffffff1663150b7a02611b58610f06565b8786866040518563ffffffff1660e01b8152600401611b7a949392919061350e565b6020604051808303816000875af1925050508015611bb657506040513d601f19601f82011682018060405250810190611bb3919061356f565b60015b611c38573d8060008114611be6576040519150601f19603f3d011682016040523d82523d6000602084013e611beb565b606091505b506000815103611c30576040517f08c379a0000000000000000000000000000000000000000000000000000000008152600401611c279061332f565b60405180910390fd5b805181602001fd5b63150b7a0260e01b7bffffffffffffffffffffffffffffffffffffffffffffffffffffffff1916817bffffffffffffffffffffffffffffffffffffffffffffffffffffffff191614915050611c8d565b600190505b949350505050565b50505050565b6008805490506009600083815260200190815260200160002081905550600881908060018154018082558091505060019003906000526020600020016000909190919091505550565b60006001611cf1846108d9565b611cfb91906135cb565b9050600060076000848152602001908152602001600020549050818114611de0576000600660008673ffffffffffffffffffffffffffffffffffffffff1673ffffffffffffffffffffffffffffffffffffffff168152602001908152602001600020600084815260200190815260200160002054905080600660008773ffffffffffffffffffffffffffffffffffffffff1673ffffffffffffffffffffffffffffffffffffffff168152602001908152602001600020600084815260200190815260200160002081905550816007600083815260200190815260200160002081905550505b6007600084815260200190815260200160002060009055600660008573ffffffffffffffffffffffffffffffffffffffff1673ffffffffffffffffffffffffffffffffffffffff16815260200190815260200160002060008381526020019081526020016000206000905550505050565b60006001600880549050611e6591906135cb565b9050600060096000848152602001908152602001600020549050600060088381548110611e9557611e94612a11565b5b906000526020600020015490508060088381548110611eb757611eb6612a11565b5b906000526020600020018190555081600960008381526020019081526020016000208190555060096000858152602001908152602001600020600090556008805480611f0657611f056135ff565b5b6001900381819060005260206000200160009055905550505050565b6000611f2d836108d9565b905081600660008573ffffffffffffffffffffffffffffffffffffffff1673ffffffffffffffffffffffffffffffffffffffff168152602001908152602001600020600083815260200190815260200160002081905550806007600084815260200190815260200160002081905550505050565b6000808273ffffffffffffffffffffffffffffffffffffffff163b119050919050565b6000604051905090565b600080fd5b600080fd5b60007fffffffff0000000000000000000000000000000000000000000000000000000082169050919050565b61200d81611fd8565b811461201857600080fd5b50565b60008135905061202a81612004565b92915050565b60006020828403121561204657612045611fce565b5b60006120548482850161201b565b91505092915050565b60008115159050919050565b6120728161205d565b82525050565b600060208201905061208d6000830184612069565b92915050565b600081519050919050565b600082825260208201905092915050565b60005b838110156120cd5780820151818401526020810190506120b2565b60008484015250505050565b6000601f19601f8301169050919050565b60006120f582612093565b6120ff818561209e565b935061210f8185602086016120af565b612118816120d9565b840191505092915050565b6000602082019050818103600083015261213d81846120ea565b905092915050565b6000819050919050565b61215881612145565b811461216357600080fd5b50565b6000813590506121758161214f565b92915050565b60006020828403121561219157612190611fce565b5b600061219f84828501612166565b91505092915050565b600073ffffffffffffffffffffffffffffffffffffffff82169050919050565b60006121d3826121a8565b9050919050565b6121e3816121c8565b82525050565b60006020820190506121fe60008301846121da565b92915050565b61220d816121c8565b811461221857600080fd5b50565b60008135905061222a81612204565b92915050565b6000806040838503121561224757612246611fce565b5b60006122558582860161221b565b925050602061226685828601612166565b9150509250929050565b61227981612145565b82525050565b60006020820190506122946000830184612270565b92915050565b6000806000606084860312156122b3576122b2611fce565b5b60006122c18682870161221b565b93505060206122d28682870161221b565b92505060406122e386828701612166565b9150509250925092565b60006020828403121561230357612302611fce565b5b60006123118482850161221b565b91505092915050565b600080fd5b600080fd5b7f4e487b7100000000000000000000000000000000000000000000000000000000600052604160045260246000fd5b61235c826120d9565b810181811067ffffffffffffffff8211171561237b5761237a612324565b5b80604052505050565b600061238e611fc4565b905061239a8282612353565b919050565b600067ffffffffffffffff8211156123ba576123b9612324565b5b6123c3826120d9565b9050602081019050919050565b82818337600083830152505050565b60006123f26123ed8461239f565b612384565b90508281526020810184848401111561240e5761240d61231f565b5b6124198482856123d0565b509392505050565b600082601f8301126124365761243561231a565b5b81356124468482602086016123df565b91505092915050565b6000806040838503121561246657612465611fce565b5b600061247485828601612166565b925050602083013567ffffffffffffffff81111561249557612494611fd3565b5b6124a185828601612421565b9150509250929050565b6124b48161205d565b81146124bf57600080fd5b50565b6000813590506124d1816124ab565b92915050565b600080604083850312156124ee576124ed611fce565b5b60006124fc8582860161221b565b925050602061250d858286016124c2565b9150509250929050565b600067ffffffffffffffff82111561253257612531612324565b5b61253b826120d9565b9050602081019050919050565b600061255b61255684612517565b612384565b9050828152602081018484840111156125775761257661231f565b5b6125828482856123d0565b509392505050565b600082601f83011261259f5761259e61231a565b5b81356125af848260208601612548565b91505092915050565b600080600080608085870312156125d2576125d1611fce565b5b60006125e08782880161221b565b94505060206125f18782880161221b565b935050604061260287828801612166565b925050606085013567ffffffffffffffff81111561262357612622611fd3565b5b61262f8782880161258a565b91505092959194509250565b6000806040838503121561265257612651611fce565b5b60006126608582860161221b565b92505060206126718582860161221b565b9150509250929050565b6000806040838503121561269257612691611fce565b5b60006126a08582860161221b565b925050602083013567ffffffffffffffff8111156126c1576126c0611fd3565b5b6126cd85828601612421565b9150509250929050565b7f4e487b7100000000000000000000000000000000000000000000000000000000600052602260045260246000fd5b6000600282049050600182168061271e57607f821691505b602082108103612731576127306126d7565b5b50919050565b7f4552433732313a20617070726f76616c20746f2063757272656e74206f776e6560008201527f7200000000000000000000000000000000000000000000000000000000000000602082015250565b600061279360218361209e565b915061279e82612737565b604082019050919050565b600060208201905081810360008301526127c281612786565b9050919050565b7f4552433732313a20617070726f76652063616c6c6572206973206e6f7420746f60008201527f6b656e206f776e6572206f7220617070726f76656420666f7220616c6c000000602082015250565b6000612825603d8361209e565b9150612830826127c9565b604082019050919050565b6000602082019050818103600083015261285481612818565b9050919050565b7f4552433732313a2063616c6c6572206973206e6f7420746f6b656e206f776e6560008201527f72206f7220617070726f76656400000000000000000000000000000000000000602082015250565b60006128b7602d8361209e565b91506128c28261285b565b604082019050919050565b600060208201905081810360008301526128e6816128aa565b9050919050565b7f455243373231456e756d657261626c653a206f776e657220696e646578206f7560008201527f74206f6620626f756e6473000000000000000000000000000000000000000000602082015250565b6000612949602b8361209e565b9150612954826128ed565b604082019050919050565b600060208201905081810360008301526129788161293c565b9050919050565b7f455243373231456e756d657261626c653a20676c6f62616c20696e646578206f60008201527f7574206f6620626f756e64730000000000000000000000000000000000000000602082015250565b60006129db602c8361209e565b91506129e68261297f565b604082019050919050565b60006020820190508181036000830152612a0a816129ce565b9050919050565b7f4e487b7100000000000000000000000000000000000000000000000000000000600052603260045260246000fd5b7f4552433732313a20696e76616c696420746f6b656e2049440000000000000000600082015250565b6000612a7660188361209e565b9150612a8182612a40565b602082019050919050565b60006020820190508181036000830152612aa581612a69565b9050919050565b7f4552433732313a2061646472657373207a65726f206973206e6f74206120766160008201527f6c6964206f776e65720000000000000000000000000000000000000000000000602082015250565b6000612b0860298361209e565b9150612b1382612aac565b604082019050919050565b60006020820190508181036000830152612b3781612afb565b9050919050565b7f596f7520617265206e6f7420746865206f776e6572206f662074686973204e4660008201527f5400000000000000000000000000000000000000000000000000000000000000602082015250565b6000612b9a60218361209e565b9150612ba582612b3e565b604082019050919050565b60006020820190508181036000830152612bc981612b8d565b9050919050565b60008190508160005260206000209050919050565b60006020601f8301049050919050565b600082821b905092915050565b600060088302612c327fffffffffffffffffffffffffffffffffffffffffffffffffffffffffffffffff82612bf5565b612c3c8683612bf5565b95508019841693508086168417925050509392505050565b6000819050919050565b6000612c79612c74612c6f84612145565b612c54565b612145565b9050919050565b6000819050919050565b612c9383612c5e565b612ca7612c9f82612c80565b848454612c02565b825550505050565b600090565b612cbc612caf565b612cc7818484612c8a565b505050565b5b81811015612ceb57612ce0600082612cb4565b600181019050612ccd565b5050565b601f821115612d3057612d0181612bd0565b612d0a84612be5565b81016020851015612d19578190505b612d2d612d2585612be5565b830182612ccc565b50505b505050565b600082821c905092915050565b6000612d5360001984600802612d35565b1980831691505092915050565b6000612d6c8383612d42565b9150826002028217905092915050565b612d8582612093565b67ffffffffffffffff811115612d9e57612d9d612324565b5b612da88254612706565b612db3828285612cef565b600060209050601f831160018114612de65760008415612dd4578287015190505b612dde8582612d60565b865550612e46565b601f198416612df486612bd0565b60005b82811015612e1c57848901518255600182019150602085019450602081019050612df7565b86831015612e395784890151612e35601f891682612d42565b8355505b6001600288020188555050505b505050505050565b7f45524337323155524953746f726167653a2055524920717565727920666f722060008201527f6e6f6e6578697374656e7420746f6b656e000000000000000000000000000000602082015250565b6000612eaa60318361209e565b9150612eb582612e4e565b604082019050919050565b60006020820190508181036000830152612ed981612e9d565b9050919050565b600081905092915050565b6000612ef682612093565b612f008185612ee0565b9350612f108185602086016120af565b80840191505092915050565b60008154612f2981612706565b612f338186612ee0565b94506001821660008114612f4e5760018114612f6357612f96565b60ff1983168652811515820286019350612f96565b612f6c85612bd0565b60005b83811015612f8e57815481890152600182019150602081019050612f6f565b838801955050505b50505092915050565b6000612fab8285612eeb565b9150612fb78284612f1c565b91508190509392505050565b7f4d6178696d756d204e4654206c696d6974207265616368656400000000000000600082015250565b6000612ff960198361209e565b915061300482612fc3565b602082019050919050565b6000602082019050818103600083015261302881612fec565b9050919050565b7f4f776e61626c653a206e6577206f776e657220697320746865207a65726f206160008201527f6464726573730000000000000000000000000000000000000000000000000000602082015250565b600061308b60268361209e565b91506130968261302f565b604082019050919050565b600060208201905081810360008301526130ba8161307e565b9050919050565b7f4552433732313a207472616e736665722066726f6d20696e636f72726563742060008201527f6f776e6572000000000000000000000000000000000000000000000000000000602082015250565b600061311d60258361209e565b9150613128826130c1565b604082019050919050565b6000602082019050818103600083015261314c81613110565b9050919050565b7f4552433732313a207472616e7366657220746f20746865207a65726f2061646460008201527f7265737300000000000000000000000000000000000000000000000000000000602082015250565b60006131af60248361209e565b91506131ba82613153565b604082019050919050565b600060208201905081810360008301526131de816131a2565b9050919050565b7f4f776e61626c653a2063616c6c6572206973206e6f7420746865206f776e6572600082015250565b600061321b60208361209e565b9150613226826131e5565b602082019050919050565b6000602082019050818103600083015261324a8161320e565b9050919050565b7f4552433732313a20617070726f766520746f2063616c6c657200000000000000600082015250565b600061328760198361209e565b915061329282613251565b602082019050919050565b600060208201905081810360008301526132b68161327a565b9050919050565b7f4552433732313a207472616e7366657220746f206e6f6e20455243373231526560008201527f63656976657220696d706c656d656e7465720000000000000000000000000000602082015250565b600061331960328361209e565b9150613324826132bd565b604082019050919050565b600060208201905081810360008301526133488161330c565b9050919050565b7f4552433732313a206d696e7420746f20746865207a65726f2061646472657373600082015250565b600061338560208361209e565b91506133908261334f565b602082019050919050565b600060208201905081810360008301526133b481613378565b9050919050565b7f4552433732313a20746f6b656e20616c7265616479206d696e74656400000000600082015250565b60006133f1601c8361209e565b91506133fc826133bb565b602082019050919050565b60006020820190508181036000830152613420816133e4565b9050919050565b7f455243373231456e756d657261626c653a20636f6e736563757469766520747260008201527f616e7366657273206e6f7420737570706f727465640000000000000000000000602082015250565b600061348360358361209e565b915061348e82613427565b604082019050919050565b600060208201905081810360008301526134b281613476565b9050919050565b600081519050919050565b600082825260208201905092915050565b60006134e0826134b9565b6134ea81856134c4565b93506134fa8185602086016120af565b613503816120d9565b840191505092915050565b600060808201905061352360008301876121da565b61353060208301866121da565b61353d6040830185612270565b818103606083015261354f81846134d5565b905095945050505050565b60008151905061356981612004565b92915050565b60006020828403121561358557613584611fce565b5b60006135938482850161355a565b91505092915050565b7f4e487b7100000000000000000000000000000000000000000000000000000000600052601160045260246000fd5b60006135d682612145565b91506135e183612145565b92508282039050818111156135f9576135f861359c565b5b92915050565b7f4e487b7100000000000000000000000000000000000000000000000000000000600052603160045260246000fdfe68747470733a2f2f6170702e70696e6174612e636c6f75642f676174657761792f6d6f63636173696e2d63617375616c2d737175697272656c2d353432a2646970667358221220f8603965c924473efebf59c166e1b596ff790643fe7ea89ef21233ed1b18163964736f6c63430008140033",
  "linkReferences": {},
  "deployedLinkReferences": {}
}